S020000050434638353734202D205265616420616E642057726974652E73726563EC
S11300000C9438000C9455000C9455000C94550035
S11300100C9455000C9455000C9455000C94550008
S11300200C9455000C9455000C9455000C945500F8
S11300300C9455000C9455000C9455000C945500E8
S11300400C9499000C9455000C9455000C94550094
S11300500C9455000C9455000C9455000C945500C8
S11300600C94BA020C945500E0021903E702200331
S113007011241FBECFEFD8E0DEBFCDBF23E0A0E048
S1130080B1E001C01D92A832B207E1F710E0C6E367
S1130090D0E004C02197FE010E944903C433D10774
S11300A0C9F70E9418030C944F030C940000FC0140
S11300B02081211114C021E02083F89481E0882359
S11300C069F085B58A7F85BD85B5826085BDEEE61C
S11300D0F0E080818160808380E0F1CF789408959E
S11300E0FC018FB7F89491E0992331F0418152815A
S11300F06381748190E0F8CF8FBFCB01BA0108957A
S11301000E94700028EE33E040E050E00E94270394
S1130110CA01B9010895FC0141815281638174814E
S113012040585F4F6F4F7F4F418352836383748383
S113013008951F920F920FB60F9211242F933F939D
S11301404F935F936F937F938F939F93AF93BF93DB
S1130150EF93FF9380E091E00E948B00FF91EF9179
S1130160BF91AF919F918F917F916F915F914F91CB
S11301703F912F910F900FBE0F901F901895CF9223
S1130180DF92EF92FF920F931F93FC0171836083C0
S1130190538342833583248317830683F186E08661
S11301A0D386C2861F910F91FF90EF90DF90CF907E
S11301B00895FC0111821082138212821582148226
S11301C01782168211861086138612860895CF939D
S11301D0DF93FC012485211119C0EC0181E084879F
S11301E0678B858780E091E00E945700F89481E056
S11301F0882359F0EC81FD818F89880F8083E885FD
S1130200F98585E4808380E0F3CF7894DF91CF9102
S11302100895FC0184858823A9F01486858581309E
S113022021F4A481B5811C9209C0811107C01686EE
S11302301786108A118AA081B1811C920084F185ED
S1130240E02D10820895CF93DF939A01AB01FC0156
S11302506585613091F0C081D18160E074E284EF02
S113026090E00E942703DA01C9014097A109B1096E
S1130270B695A795979587958883DF91CF91089533
S1130280CF93DF93FC01248521111BC0EC0181E095
S11302908487158680E091E00E94570082E090E018
S11302A0A0E0B0E08E879F87A88BB98B40E85AE125
S11302B066E070E0CE010E942301E885F98584E4BC
S11302C08083DF91CF9108951F93CF93DF93EC0147
S11302D08D854DE152E0849F9001859F300D11245E
S11302E0C217D30769F4E881F9811081CE010E9415
S11302F00901CE010E944001E881F981108309C0FF
S1130300813039F4CE010E9409016F89CE010E9427
S1130310E700DF91CF911F9108950F931F93CF931F
S1130320DF93FC012585213069F1EC010084F1851E
S1130330E02D84E9808380E091E00E9480006A8B54
S11303407B8B8C8B9D8BE885F985808184FF1AC01B
S113035080E091E00E9480000A891B892C893D89F4
S1130360DC01CB01801B910BA20BB30B0E851F8507
S11303702889398980179107A207B30720F3CE0192
S11303800E946401DF91CF911F910F9108950F9303
S11303901F93CF93DF93FC01A281B3819C91987F3B
S11303A09039B9F1EF019139A0F4903749F140F453
S11303B0903631F1983621F1992309F498C09AC006
S11303C0903839F1983809F453C0983709F092C03D
S11303D017C0903B09F451C048F4903AB9F1983AE7
S11303E009F44BC0983909F085C042C0903C09F427
S11303F079C0983C09F476C0983B09F453C07AC09C
S1130400FE01E55EFE4F1082E885F98585EC808368
S113041071C0DF01A55EBE4F8C918F3F89F091E0E2
S1130420980F9C93A681B7819C91DF01A80FB11D01
S11304305C969C930084F185E02D85EC80835AC002
S11304400084F185E02D85E8808354C00084F18523
S1130450E02D85EC8083E88DF98D8E01055E1E4FBD
S1130460D8016C91CE014C960995F801108242C0D6
S1130470E885F98585E880833DC0FE01E55EFD4F92
S113048010828E01045E1D4FD8011C92EA8DFB8DF3
S11304900995F8018081811105C0F8018F5F80837F
S11304A0FA9510822E813F81FE01E55EFD4F808129
S11304B091E0980F9083DE01A80FB11DA45EBE4F9A
S11304C08C91D9018C93908131968081981728F46E
S11304D0E885F98585EC80830DC0E885F98585E894
S11304E0808308C0E885F98585EC808303C0CF014B
S11304F00E948D01DF91CF911F910F910895AF92CA
S1130500BF92CF92DF92EF92FF920F931F93CF93FC
S1130510DF93EC015B010197C9F46F3F7F4FB1F4A6
S11305200F2EFDEBCF2ED12CF02D0F2EFCEBEF2E4A
S1130530F12CF02D0BEB10E02AEB30E049EB50E00E
S113054068EB70E085E091E00E94BF00CD2B39F4A8
S1130550AB20A09421F485E091E00E94D900DF91C2
S1130560CF911F910F91FF90EF90DF90CF90BF90AC
S1130570AF9008951F920F920FB60F9211242F93EC
S11305803F934F935F936F937F938F939F93AF9317
S1130590BF93EF93FF9385E091E00E94C701FF9121
S11305A0EF91BF91AF919F918F917F916F915F91E7
S11305B04F913F912F910F900FBE0F901F90189560
S11305C06FEF7FEF81E090E00E947F0208956FEF6C
S11305D07FEF80E090E00E947F020895FC01718328
S11305E0608342830895FC0111821082128208956F
S11305F00F931F93CF93DF93EC018B01019751F479
S11306006F3F7F4F39F448E365E071E082E293E0A5
S11306100E94EE02CD2B39F40F3F1F4F21F482E2EA
S113062093E00E94F302DF91CF911F910F910895FF
S1130630FFCF6FEF7FEF81E090E00E94F802089512
S11306406FEF7FEF80E090E00E94F8020895A1E24E
S11306501A2EAA1BBB1BFD010DC0AA1FBB1FEE1F38
S1130660FF1FA217B307E407F50720F0A21BB30B83
S1130670E40BF50B661F771F881F991F1A9469F7FF
S113068060957095809590959B01AC01BD01CF015B
S11306900895EE0FFF1F0590F491E02D099410E0EA
S11306A0C6E3D0E004C0FE010E9449032196C8338A
S10B06B0D107C9F7F894FFCF4C
S9030000FC
